:020000040800F2
:10000000780600208901000891010008930100088A
:100010009501000897010008990100080000000000
:100020000000000000000000000000009B0100082C
:100030009D010008000000009F010008E90600087B
:10004000A3010008A3010008A3010008A301000800
:10005000A3010008A3010008A3010008A3010008F0
:10006000A3010008A3010008A3010008A3010008E0
:10007000A3010008A3010008A3010008A3010008D0
:10008000A3010008A3010008A3010008A3010008C0
:10009000A3010008A3010008A3010008A3010008B0
:1000A000A3010008A3010008A3010008A3010008A0
:1000B000A3010008A3010008A3010008A301000890
:1000C000A3010008A3010008A3010008A301000880
:1000D000A3010008A3010008A3010008A301000870
:1000E000A3010008A3010008A301000800F002F822
:1000F00000F03AF80AA090E8000C82448344AAF188
:100100000107DA4501D100F02FF8AFF2090EBAE885
:100110000F0013F0010F18BFFB1A43F0010318473B
:100120006407000084070000103A24BF78C878C133
:10013000FAD8520724BF30C830C144BF04680C60ED
:10014000704700000023002400250026103A28BF35
:1001500078C1FBD8520728BF30C148BF0B60704739
:100160001FB51FBD10B510BD00F031F81146FFF7E7
:10017000F7FF00F047FB00F04FF803B4FFF7F2FF82
:1001800003BC00F057F800000948804709480047C1
:10019000FEE7FEE7FEE7FEE7FEE7FEE7FEE7FEE737
:1001A000FEE7FEE704480549054A064B7047000094
:1001B000A5070008ED000008780000207806002060
:1001C000780200207802002070477047704775461B
:1001D00000F02CF8AE4605006946534620F00700B3
:1001E000854618B020B5FFF7DDFFBDE820404FF091
:1001F00000064FF000074FF000084FF0000B21F011
:100200000701AC46ACE8C009ACE8C009ACE8C009DD
:10021000ACE8C0098D46704710B50446AFF30080C6
:100220002046BDE81040FFF7A8BF00000048704717
:100230001800002001491820ABBEFEE7260002008E
:100240007047000070B500F05BFA14480068144A6B
:10025000B0FBF2F1B1F1807F00D31DE021F07F40CF
:10026000401E4FF0E022506150170F22002807DA9D
:1002700013071D0E0B4B00F00F04241F1D5503E048
:1002800013071C0E084B1C5400BF00204FF0E02247
:1002900090610720106100BF70BD000004000020C5
:1002A00040420F0018ED00E000E400E000B5024617
:1002B00003E04FF47A7000F005F8101EA2F101027D
:1002C000F7D100BD0349086000BF02490968002951
:1002D000FBD170470000002008B50121082000F084
:1002E0007FF94FF40050ADF8000010208DF80300A6
:1002F00003208DF802006946014800F003F808BDAC
:10030000001001402DE9F0410246002500260020A2
:1003100000230024002791F803C00CF00F0591F88A
:1003200003C00CF0100CBCF1000F03D091F802C018
:100330004CEA050591F800C0BCF1000F31D01468FB
:1003400000202BE04FF0010C0CFA00F3B1F800C0D4
:100350000CEA03069E4220D183004FF00F0C0CFAEA
:1003600003F7BC4305FA03FC4CEA040491F803C00C
:10037000BCF1280F06D14FF0010C0CFA00FCC2F8BA
:1003800014C00AE091F803C0BCF1480F05D14FF04A
:10039000010C0CFA00FCC2F810C0401C0828D1D394
:1003A0001460B1F800C0BCF1FF0F34DD54680020C8
:1003B0002EE000F1080C4FF0010808FA0CF3B1F838
:1003C00000C00CEA03069E4221D183004FF00F0CBF
:1003D0000CFA03F7BC4305FA03FC4CEA040491F859
:1003E00003C0BCF1280F05D100F1080C08FA0CF885
:1003F000C2F8148091F803C0BCF1480F07D100F196
:10040000080C4FF0010808FA0CF8C2F81080401CE4
:100410000828CED35460BDE8F081000008B5012162
:100420000C2000F0DDF800224FF430610E4800F09F
:1004300023F8002238210D4800F01EF810208DF816
:1004400003004FF47060ADF8000001208DF8020049
:1004500069460548FFF756FF3820ADF800006946A9
:100460000248FFF74FFF08BD00080140000C0140A3
:1004700041617047016170470AB1016100E041616B
:100480007047000010B520210648FFF7F3FF012058
:10049000FFF70CFF20210348FFF7EAFF0120FFF7D9
:1004A00005FF10BD000C014070B506460C461CB996
:1004B00006F18000C5B204E0012C02D106F1C000B3
:1004C000C5B2284600F068F870BD000010B5FFF70F
:1004D000A5FF002000F03EF8002208210E48FFF79B
:1004E000CBFF032000F036F8FFF7CCFFFFF7CAFF81
:1004F000FFF7C8FF022000F02DF8FFF7C3FF282008
:1005000000F04AF80C2000F047F8062000F044F80C
:10051000012000F041F810BD000C014010B5044668
:1005200008210548FFF7A6FF204600F035F808210E
:100530000148FFF79DFF10BD000C014010B50446B7
:1005400003E02078FFF7EAFF641C20780028F8D148
:1005500010BD000010B5044604F001024FF4807194
:100560000C48FFF789FFC4F340024FF400710948BB
:10057000FFF782FFC4F380024FF480610548FFF764
:100580007BFFC4F3C0024FF400610248FFF774FF21
:1005900010BD00000008014010B504462011FFF70F
:1005A000D9FFFFF76FFF2046FFF7D4FFFFF76AFF81
:1005B00010BD000010B54FF400510848FFF75AFF76
:1005C0004FF4FA70FFF772FE4FF400510348FFF743
:1005D0004FFF4FF4FA70FFF769FE10BD00100140A5
:1005E00029B1064A92690243044B9A6104E0034A26
:1005F00092698243014B9A617047000000100240EB
:1006000010B500F001F810BD0CB50020019000906D
:100610003348006840F480303149086000BF3048FA
:10062000006800F4003000900198401C0190009890
:1006300018B90198B0F5A06FF1D12948006800F40D
:10064000003010B10120009001E0002000900098DF
:10065000012843D12348006840F010002149086078
:100660000846006820F0030008600846006840F073
:10067000020008601A484068194948600846406806
:1006800048600846406840F480604860084640681A
:1006900020F47C1048600846406840F4E810486048
:1006A0000846006840F08070086000BF0C48006891
:1006B00000F000700028F9D00948406820F00300DD
:1006C000074948600846406840F00200486000BFA3
:1006D0000348406800F00C000828F9D10CBD000068
:1006E00000100240002002400448006820B1034886
:1006F0000068401E014908607047000000000020AB
:1007000010B5002100200022214B5B6803F00C0192
:1007100021B1042906D0082928D107E01D4B1E4C21
:10072000236027E01B4B1C4C236023E0184B5B68C5
:1007300003F47010164B5B6803F48032022303EB62
:10074000904022B9154B4343134C23600DE0104BEE
:100750005B6803F4003323B1104B43430E4C23601A
:1007600003E00C4B43430C4C236003E0094B0A4C61
:10077000236000BF00BF064B5B68C3F30313084C44
:10078000E15C054B1B68CB40034C236010BD0000AF
:100790000010024000127A000400002000093D0011
:1007A0000800002010B51348006840F0010011490E
:1007B000086008464068104908400E4948600846ED
:1007C00000680E4908400B4908600846006820F49C
:1007D000802008600846406820F4FE0048604FF41E
:1007E0001F008860FFF70CFF4FF0006004490860AD
:1007F00010BD0000001002400000FFF8FFFFF6FEF1
:1008000008ED00E0FFF71EFDFFF760FEFFF764FD57
:1008100000210620FFF748FE17A0FFF78FFE0025F6
:1008200006E01820FFF7B8FE1420FFF73FFD6D1C0F
:10083000062DF6DB1FE000210846FFF735FE0024F9
:1008400006E01C20FFF7A8FE1420FFF72FFD641C14
:100850000C2CF6DBFFF7AEFE0A20FFF727FD002485
:1008600006E01820FFF798FE1420FFF71FFD641C18
:100870000C2CF6DB00BFDEE74869656E2042616341
:1008800068000000A4080008000000201800000014
:1008900028010008BC0800081800002060060000BD
:1008A000440100080000000000A24A04000000000B
:0C08B00000000000010203040607080914
:04000005080000ED02
:00000001FF
