:020000040800F2
:10000000780600208901000891010008930100088A
:100010009501000897010008990100080000000000
:100020000000000000000000000000009B0100082C
:100030009D010008000000009F010008A1010008C8
:10004000A3010008A3010008A3010008A301000800
:10005000A3010008A3010008A3010008A3010008F0
:10006000A3010008A3010008A3010008A3010008E0
:10007000A3010008A3010008A3010008A3010008D0
:10008000A3010008A3010008A3010008A3010008C0
:10009000A3010008A3010008A3010008A3010008B0
:1000A000A3010008A3010008A3010008A3010008A0
:1000B000A3010008A3010008A3010008A301000890
:1000C000A3010008A3010008A3010008A301000880
:1000D000A3010008A3010008A3010008A301000870
:1000E000A3010008A3010008A301000800F002F822
:1000F00000F03AF80AA090E8000C82448344AAF188
:100100000107DA4501D100F02FF8AFF2090EBAE885
:100110000F0013F0010F18BFFB1A43F0010318473B
:10012000EC0700000C080000103A24BF78C878C122
:10013000FAD8520724BF30C830C144BF04680C60ED
:10014000704700000023002400250026103A28BF35
:1001500078C1FBD8520728BF30C148BF0B60704739
:100160001FB51FBD10B510BD00F031F81146FFF7E7
:10017000F7FF00F0BBFB00F04FF803B4FFF7F2FF0E
:1001800003BC00F057F800000948804709480047C1
:10019000FEE7FEE7FEE7FEE7FEE7FEE7FEE7FEE737
:1001A000FEE7FEE704480549054A064B7047000094
:1001B0008D080008ED000008780000207806002077
:1001C000780200207802002070477047704775461B
:1001D00000F02CF8AE4605006946534620F00700B3
:1001E000854618B020B5FFF7DDFFBDE820404FF091
:1001F00000064FF000074FF000084FF0000B21F011
:100200000701AC46ACE8C009ACE8C009ACE8C009DD
:10021000ACE8C0098D46704710B50446AFF30080C6
:100220002046BDE81040FFF7A8BF00000048704717
:100230001400002001491820ABBEFEE72600020092
:1002400070472DE9F04102460025002600200023DA
:100250000024002791F803C00CF00F0591F803C0AB
:100260000CF0100CBCF1000F03D091F802C04CEA66
:10027000050591F800C0BCF1000F31D014680020D2
:100280002BE04FF0010C0CFA00F3B1F800C00CEABF
:1002900003069E4220D183004FF00F0C0CFA03F7A7
:1002A000BC4305FA03FC4CEA040491F803C0BCF11A
:1002B000280F06D14FF0010C0CFA00FCC2F814C054
:1002C0000AE091F803C0BCF1480F05D14FF0010CD2
:1002D0000CFA00FCC2F810C0401C0828D1D31460EE
:1002E000B1F800C0BCF1FF0F34DD546800202EE0EF
:1002F00000F1080C4FF0010808FA0CF3B1F800C047
:100300000CEA03069E4221D183004FF00F0C0CFA39
:1003100003F7BC4305FA03FC4CEA040491F803C05C
:10032000BCF1280F05D100F1080C08FA0CF8C2F84E
:10033000148091F803C0BCF1480F07D100F1080CFC
:100340004FF0010808FA0CF8C2F81080401C082889
:10035000CED35460BDE8F08170B50246002400257C
:1003600000230020958A138B1B0445EA030626F020
:100370007F4404EA01068E4201D1012000E0002002
:1003800070BD21B1028842F00102028004E00288BF
:100390004FF6FE731A4002807047000000B585B02A
:1003A0000121082000F084F90121480500F070F9CE
:1003B000C020ADF800001C208DF8030003208DF84C
:1003C000020069460F48FFF73CFF0020ADF8080027
:1003D0004BF6FF70ADF80A000020ADF80C004FF4AA
:1003E0008060ADF80E000001ADF8100006480190E5
:1003F00001A9064800F042F801210448FFF7C1FFB7
:1004000005B000BD000C0140A08601000054004072
:1004100021B1028842F48072028004E002884FF623
:10042000FF631A400280704721B1028842F40072D3
:10043000028004E002884FF6FF531A4002807047A2
:100440000CB50246002000230193009300920B0F8D
:10045000019321F07F41019B1BB1009B143300935A
:1004600003E0090C009B18330093009B1B680B40B2
:100470000BB1012000E000200CBD00002DE9F0438D
:1004800085B004460D460026B1460427DFF8CC802F
:10049000A6884FF6C0700640684600F019F9DDF8EE
:1004A00008802F48B8FBF0F01FFA80F946EA0906E9
:1004B000A68020884FF6FE7108402080002629493A
:1004C000286888420CD828684000B8FBF0F087B252
:1004D000042F00DA04273E4309F10100208427E0BD
:1004E000E8884BF6FF71884206D1286800EB40008F
:1004F000B8FBF0F087B209E0286800EBC00101EB1F
:100500000010B8FBF0F087B247F48047C7F30B0048
:1005100008B947F0010747F4004006434FF49670CE
:1005200009FB00F04FF47A7190FBF1F0401C20843D
:10053000A683208840F00100208026884FF6F53001
:100540000640A8886989084306432680A889298926
:100550000843208105B0BDE8F083000000127A0056
:1005600040420F00A086010012B141F0010102E0FB
:100570004FF6FE73194001827047018270470000F8
:1005800010B5044600BF4FF400311648FFF758FF7E
:100590000028F8D101211348FFF73AFF00BF1249A4
:1005A0001048FFF7D9FE0028F9D000224E210D484F
:1005B000FFF7DAFF00BF0D490A48FFF7CDFE00281C
:1005C000F9D021460748FFF7D8FF00BF0749891C2B
:1005D0000448FFF7C1FE0028F8D001210148FFF7C9
:1005E00023FF10BD005400400100030082000700FB
:1005F00010B5332000F010F8322000F00DF828205C
:1006000000F00AF80C2000F007F8062000F004F8CB
:10061000012000F001F810BD70B5044604F0F005AB
:10062000F02000EA041645F00C00FFF7A9FF45F0A2
:100630000800FFF7A5FF46F00C00FFF7A1FF46F00A
:100640000800FFF79DFF70BD70B5044604F0F0058B
:10065000F02000EA041645F00D00FFF791FF45F089
:100660000900FFF78DFF46F00D00FFF789FF46F008
:100670000900FFF785FF70BD10B5044603E014F8CC
:10068000010BFFF7E1FF20780028F8D110BD000032
:1006900029B1064AD2690243044BDA6104E0034AF5
:1006A000D2698243014BDA617047000000100240BA
:1006B00029B1064A92690243044B9A6104E0034A55
:1006C00092698243014B9A6170470000001002401A
:1006D00030B500210022002400232D4D6D6805F067
:1006E0000C0121B1042905D0082923D105E0294DA9
:1006F000056022E0274D05601FE0254D6D6805F47B
:100700007012234D6D6805F48034022505EB92428A
:100710001CB9214D554305600BE01D4D6D6805F476
:1007200000351DB11C4D5543056002E0194D554380
:10073000056002E0174D056000BF00BF144D6D68F5
:1007400005F0F0010909154D6B5C0568DD40456059
:100750000F4D6D6805F4E061090A104D6B5C45684A
:10076000DD4085600A4D6D6805F46051C90A0B4D86
:100770006B5C4568DD40C560054D6D6805F4404122
:10078000890B074D6B5CC568B5FBF3F5056130BDA2
:100790000010024000127A0000093D000000002015
:1007A0001000002010B500F001F810BD0CB50020BD
:1007B000019000903348006840F48030314908606F
:1007C00000BF3048006800F4003000900198401CE1
:1007D0000190009818B90198B0F5A06FF1D129489F
:1007E000006800F4003010B10120009001E000200A
:1007F00000900098012843D12348006840F0100081
:10080000214908600846006820F007000860084693
:10081000006840F0020008601A48406819494860C2
:100820000846406848600846406840F48060486078
:100830000846406820F47C1048600846406840F450
:10084000E81048600846006840F08070086000BF0B
:100850000C48006800F000700028F9D00948406892
:1008600020F00300074948600846406840F0020055
:10087000486000BF0348406800F00C000828F9D128
:100880000CBD0000001002400020024010B51348CB
:10089000006840F0010011490860084640681049AE
:1008A00008400E494860084600680E4908400B4958
:1008B00008600846006820F4802008600846406808
:1008C00020F4FE0048604FF41F008860FFF76AFFC5
:1008D0004FF000600449086010BD000000100240A5
:1008E0000000FFF8FFFFF6FE08ED00E0FFF756FD01
:1008F000FFF77EFE02A0FFF7BFFE00BFFEE700008D
:100900004869656E20426163680000002C09000898
:100910000000002014000000280100084009000821
:1009200014000020640600004401000800000000DC
:100930000102030401020304060708090204060871
:040000050800018965
:00000001FF
