:020000040800F2
:100000007006002089010008910100089301000892
:100010009501000897010008990100080000000000
:100020000000000000000000000000009B0100082C
:100030009D010008000000009F010008390700082A
:10004000A3010008A3010008A3010008A301000800
:10005000A3010008A3010008A3010008A3010008F0
:10006000A3010008A3010008A3010008A3010008E0
:10007000A3010008A3010008A3010008A3010008D0
:10008000A3010008A3010008A3010008A3010008C0
:10009000A3010008A3010008A3010008A3010008B0
:1000A000A3010008A3010008A3010008A3010008A0
:1000B000A3010008A3010008A3010008A301000890
:1000C000A3010008A3010008A3010008A301000880
:1000D000A3010008A3010008A3010008A301000870
:1000E000A3010008A3010008A301000800F002F822
:1000F00000F03AF80AA090E8000C82448344AAF188
:100100000107DA4501D100F02FF8AFF2090EBAE885
:100110000F0013F0010F18BFFB1A43F0010318473B
:10012000F807000018080000103A24BF78C878C10A
:10013000FAD8520724BF30C830C144BF04680C60ED
:10014000704700000023002400250026103A28BF35
:1001500078C1FBD8520728BF30C148BF0B60704739
:100160001FB51FBD10B510BD00F031F81146FFF7E7
:10017000F7FF00F069FB00F04FF803B4FFF7F2FF60
:1001800003BC00F057F800000948804709480047C1
:10019000FEE7FEE7FEE7FEE7FEE7FEE7FEE7FEE737
:1001A000FEE7FEE704480549054A064B7047000094
:1001B00045070008ED0000087000002070060020D0
:1001C000700200207002002070477047704775462B
:1001D00000F02CF8AE4605006946534620F00700B3
:1001E000854618B020B5FFF7DDFFBDE820404FF091
:1001F00000064FF000074FF000084FF0000BAC4630
:10020000ACE8C009ACE8C009ACE8C009ACE8C0097A
:1002100021F007018D46704710B50446AFF300800A
:100220002046BDE81040FFF7A8BF00000048704717
:100230000800002001491820ABBEFEE7260002009E
:1002400070470000E0B51020012100F027FA0348B4
:1002500001A90190024800F005F88CBD00200310B0
:10026000001001402DE9F04391F803E00EF00F0C6F
:100270005FEACE6244BF8A784CEA020C09880A061B
:1002800021D0036800224FF001094FF00F0800262B
:1002900016E009FA06F70F4210D008FA02F40CFA39
:1002A00002F5BEF1480F23EA040343EA050304D034
:1002B000BEF1280F08BF476100E007610432013634
:1002C000082EE6D10360B1F5807F38BFBDE8F0832A
:1002D000436800224FF480794FF00F08002618E0A1
:1002E00009FA06F707EA0105BD4210D108FA02F43F
:1002F0000CFA02F5BEF1480F23EA040343EA0503B2
:1003000004D0BEF1280F08BF476100E00761043246
:100310000136082EE4D14360BDE8F08341617047A7
:1003200001617047828A008B60F3174202EA010084
:10033000401AB0FA80F0400970470288002942F064
:10034000010308BF22F001030380704702880029DF
:1003500042F4807308BF22F48073038070470288E0
:10036000002942F4007308BF22F400730380704731
:1003700082B00022019200920090080F019021F0BB
:100380007F40019911B10099143102E00099000CED
:100390001831009100990968084018BF012002B087
:1003A0007047000070B586B00446868801A80D46E7
:1003B00000F080F92748039926F03F023D4BB1FB3E
:1003C000F0F00243A280228822F0010222802A68F3
:1003D0009A4208D85200B1FBF2F14FF6FC7211427A
:1003E00008BF04211FE0EB884BF6FF76B34204D12F
:1003F00002EB4202B1FBF2F105E019235A43B1FBD3
:10040000F2F141F480414FF4967250434FF47A7206
:10041000B0FBF2F00A466FF31F32B2FA82F25209D1
:1004200011430D4A114301302084A1834FF6F53169
:10043000208840F00100208020880840A9880843D7
:10044000698908432080A88929890843208106B04A
:1004500070BD00BF40420F000080FFFF10B586B0A6
:100460000820012100F01AF94FF40010012100F0DA
:1004700009F90E48764C05A9059004F53840FFF7B8
:10048000F1FE4FF4804001A9ADF810004FF08060FC
:10049000039007480290074801902046FFF782FF2B
:1004A00020460121FFF749FF06B010BDC000031C24
:1004B0000000FFBFA086010041F00103002A08BF31
:1004C00001F0FE030382704701827047E0B501200E
:1004D00000F02EF8002001900198B0F5FA6FA8BF47
:1004E0008CBD01980130F6E7B0B50F4D0520A84747
:1004F0000E4C3320A0470520A8473220A0470520F6
:10050000A8472820A0470520A8470C20A047052081
:10051000A8470620A0470520A8470120A04705209E
:100520002946BDE8B04008473508000831050008F5
:10053000F8B50101464C00F0F00001F108020C3161
:100540008DF803208DF8021000F108010C308DF8B1
:1005500001108DF8000020464FF40031FFF708FF2E
:100560000028F8D120460121FFF7F0FE394D204642
:100570002946FFF7D7FE0028F9D020464E21002259
:10058000FFF79AFF344D20462946FFF7CBFE00289F
:10059000F9D000266F4602350AE0B95D2046FFF724
:1005A00093FF20462946FFF7BDFE0028F9D001360B
:1005B000042EF2D120460121BDE8F840FFF7CFBE5E
:1005C000F8B50101224C00F0F00001F109020D31F3
:1005D0008DF803208DF8021000F109010D308DF81F
:1005E00001108DF8000020464FF40031FFF7C0FEE7
:1005F0000028F8D120460121FFF7A8FE154D20461E
:100600002946FFF78FFE0028F9D020464E21002210
:10061000FFF752FF104D20462946FFF783FE0028C2
:10062000F9D000266F4602350AE0B95D2046FFF793
:100630004BFF20462946FFF775FE0028F9D001360A
:10064000042EF2D120460121BDE8F840FFF787BE15
:1006500000540040010003008200070010B504466A
:1006600002E0FFF7ADFF013420780028F9D110BD7A
:1006700003A2105C084440F08000C0B2FFF758BFEE
:1006800000401454044A002911680CBF21EA0000FC
:1006900008431060704700BF1C100240044A002944
:1006A00011680CBF21EA000008431060704700BFCA
:1006B0001810024010B51B4C226802F00C031A4AB5
:1006C000082B0FD12368C3F3834303F1020C236883
:1006D000DB0301D4154A03E023689B0348BF134A98
:1006E0000CFB02F2026012492368C3F30313CB5CD4
:1006F000DA4042602368C3F30223CB5C22FA03F39F
:1007000083602368C3F3C223C95C0A4B22FA01F158
:10071000C1602268C2F381329A5CB1FBF2F10161DF
:1007200010BD00BF0410024000127A0000093D0015
:10073000FC080008F808000842480168013101601F
:10074000704700BF82B03648364A016841F0010167
:10075000016041681140344A416001681140016004
:10076000016821F480210160416821F4FE014160AB
:100770004FF41F018160002101910091016841F453
:1007800080310160016801F400310091019901316B
:100790000191009919B90199B1F5A06FF2D10168E1
:1007A000890354BF0021012100910099012930D112
:1007B0001E490A6842F010020A600A6822F0070225
:1007C0000A600A6842F002020A60416841604168BA
:1007D0004160416841F480614160416821F47C11CD
:1007E0004160416841F4E8114160016841F0807165
:1007F000016001688901FCD5416821F00301416075
:10080000416841F002014160416801F00C01082992
:10081000FAD107484FF00061016002B0704700BF95
:10082000001002400000FFF8FFFFF6FE002002402B
:1008300008ED00E003490A680B689B1A8342FBD36A
:10084000704700BF6800002023484FF47A71F022FF
:100850000068B0FBF1F0214901384860204802707F
:100860000020886007200860FFF7F8FDFFF73CFED6
:1008700000200421FFF7FCFE1A4C2046FFF7EEFE95
:100880004FF4FA60FFF7D6FFFFF720FEFFF7DAFC20
:10089000154D16A628464FF40051FFF741FD4FF4C1
:1008A0007A70FFF7C7FF28464FF40051FFF736FD77
:1008B0004FF47A70FFF7BEFF00200421FFF7D8FE47
:1008C0002046FFF7CBFE01200421FFF7D1FE304682
:1008D000FFF7C4FEDEE700BF0000002010E000E0EC
:1008E00023ED00E00C090008001001404C65204891
:1008F0007579656E00000000020406080000000023
:100900000102030401020304060708094261636847
:10091000204869656E0000003809000800000020CA
:1009200004000000280100083C090008080000201D
:0C093000680600004401000800A24A0410
:040000050800018965
:00000001FF
